{
  "contractName": "VestingSchedule",
  "abi": [
    {
      "constant": true,
      "inputs": [
        {
          "name": "_address",
          "type": "address"
        }
      ],
      "name": "getAllocation",
      "outputs": [
        {
          "name": "_startedOn",
          "type": "uint256"
        },
        {
          "name": "_memberName",
          "type": "string"
        },
        {
          "name": "_releaseOn",
          "type": "uint256"
        },
        {
          "name": "_allocation",
          "type": "uint256"
        },
        {
          "name": "_closingBalance",
          "type": "uint256"
        },
        {
          "name": "_withdrawn",
          "type": "uint256"
        },
        {
          "name": "_lastWithdrawnOn",
          "type": "uint256"
        },
        {
          "name": "_deleted",
          "type": "bool"
        }
      ],
      "payable": false,
      "stateMutability": "view",
      "type": "function"
    },
    {
      "constant": false,
      "inputs": [
        {
          "name": "_address",
          "type": "address"
        }
      ],
      "name": "removeAdmin",
      "outputs": [],
      "payable": false,
      "stateMutability": "nonpayable",
      "type": "function"
    },
    {
      "constant": true,
      "inputs": [],
      "name": "totalVested",
      "outputs": [
        {
          "name": "",
          "type": "uint256"
        }
      ],
      "payable": false,
      "stateMutability": "view",
      "type": "function"
    },
    {
      "constant": true,
      "inputs": [],
      "name": "withdrawalFrequency",
      "outputs": [
        {
          "name": "",
          "type": "uint256"
        }
      ],
      "payable": false,
      "stateMutability": "view",
      "type": "function"
    },
    {
      "constant": false,
      "inputs": [],
      "name": "unpause",
      "outputs": [],
      "payable": false,
      "stateMutability": "nonpayable",
      "type": "function"
    },
    {
      "constant": true,
      "inputs": [
        {
          "name": "",
          "type": "address"
        }
      ],
      "name": "admins",
      "outputs": [
        {
          "name": "",
          "type": "bool"
        }
      ],
      "payable": false,
      "stateMutability": "view",
      "type": "function"
    },
    {
      "constant": true,
      "inputs": [],
      "name": "vestingStartedOn",
      "outputs": [
        {
          "name": "",
          "type": "uint256"
        }
      ],
      "payable": false,
      "stateMutability": "view",
      "type": "function"
    },
    {
      "constant": true,
      "inputs": [],
      "name": "totalWithdrawn",
      "outputs": [
        {
          "name": "",
          "type": "uint256"
        }
      ],
      "payable": false,
      "stateMutability": "view",
      "type": "function"
    },
    {
      "constant": true,
      "inputs": [],
      "name": "getAvailableFunds",
      "outputs": [
        {
          "name": "",
          "type": "uint256"
        }
      ],
      "payable": false,
      "stateMutability": "view",
      "type": "function"
    },
    {
      "constant": true,
      "inputs": [],
      "name": "paused",
      "outputs": [
        {
          "name": "",
          "type": "bool"
        }
      ],
      "payable": false,
      "stateMutability": "view",
      "type": "function"
    },
    {
      "constant": false,
      "inputs": [
        {
          "name": "_address",
          "type": "address"
        }
      ],
      "name": "addAdmin",
      "outputs": [],
      "payable": false,
      "stateMutability": "nonpayable",
      "type": "function"
    },
    {
      "constant": true,
      "inputs": [],
      "name": "minimumVestingPeriod",
      "outputs": [
        {
          "name": "",
          "type": "uint256"
        }
      ],
      "payable": false,
      "stateMutability": "view",
      "type": "function"
    },
    {
      "constant": false,
      "inputs": [],
      "name": "renounceOwnership",
      "outputs": [],
      "payable": false,
      "stateMutability": "nonpayable",
      "type": "function"
    },
    {
      "constant": true,
      "inputs": [],
      "name": "earliestWithdrawalDate",
      "outputs": [
        {
          "name": "",
          "type": "uint256"
        }
      ],
      "payable": false,
      "stateMutability": "view",
      "type": "function"
    },
    {
      "constant": false,
      "inputs": [],
      "name": "pause",
      "outputs": [],
      "payable": false,
      "stateMutability": "nonpayable",
      "type": "function"
    },
    {
      "constant": true,
      "inputs": [],
      "name": "withdrawalCap",
      "outputs": [
        {
          "name": "",
          "type": "uint256"
        }
      ],
      "payable": false,
      "stateMutability": "view",
      "type": "function"
    },
    {
      "constant": true,
      "inputs": [],
      "name": "owner",
      "outputs": [
        {
          "name": "",
          "type": "address"
        }
      ],
      "payable": false,
      "stateMutability": "view",
      "type": "function"
    },
    {
      "constant": true,
      "inputs": [],
      "name": "vestingCoin",
      "outputs": [
        {
          "name": "",
          "type": "address"
        }
      ],
      "payable": false,
      "stateMutability": "view",
      "type": "function"
    },
    {
      "constant": false,
      "inputs": [
        {
          "name": "_accounts",
          "type": "address[]"
        }
      ],
      "name": "addManyAdmins",
      "outputs": [],
      "payable": false,
      "stateMutability": "nonpayable",
      "type": "function"
    },
    {
      "constant": true,
      "inputs": [],
      "name": "getAmountInVesting",
      "outputs": [
        {
          "name": "",
          "type": "uint256"
        }
      ],
      "payable": false,
      "stateMutability": "view",
      "type": "function"
    },
    {
      "constant": false,
      "inputs": [
        {
          "name": "_accounts",
          "type": "address[]"
        }
      ],
      "name": "removeManyAdmins",
      "outputs": [],
      "payable": false,
      "stateMutability": "nonpayable",
      "type": "function"
    },
    {
      "constant": false,
      "inputs": [
        {
          "name": "_newOwner",
          "type": "address"
        }
      ],
      "name": "transferOwnership",
      "outputs": [],
      "payable": false,
      "stateMutability": "nonpayable",
      "type": "function"
    },
    {
      "inputs": [
        {
          "name": "_minPeriod",
          "type": "uint256"
        },
        {
          "name": "_withdrawalCap",
          "type": "uint256"
        },
        {
          "name": "_withdrawalFrequency",
          "type": "uint8"
        },
        {
          "name": "_vestingCoin",
          "type": "address"
        }
      ],
      "payable": false,
      "stateMutability": "nonpayable",
      "type": "constructor"
    },
    {
      "anonymous": false,
      "inputs": [
        {
          "indexed": true,
          "name": "_funder",
          "type": "address"
        },
        {
          "indexed": false,
          "name": "_amount",
          "type": "uint256"
        },
        {
          "indexed": false,
          "name": "_previousCap",
          "type": "uint256"
        },
        {
          "indexed": false,
          "name": "_newCap",
          "type": "uint256"
        }
      ],
      "name": "Funded",
      "type": "event"
    },
    {
      "anonymous": false,
      "inputs": [
        {
          "indexed": true,
          "name": "_address",
          "type": "address"
        },
        {
          "indexed": false,
          "name": "_amount",
          "type": "uint256"
        },
        {
          "indexed": false,
          "name": "_remainingInPool",
          "type": "uint256"
        }
      ],
      "name": "FundRemoved",
      "type": "event"
    },
    {
      "anonymous": false,
      "inputs": [
        {
          "indexed": true,
          "name": "_address",
          "type": "address"
        },
        {
          "indexed": false,
          "name": "_memberName",
          "type": "string"
        },
        {
          "indexed": false,
          "name": "_amount",
          "type": "uint256"
        }
      ],
      "name": "Withdrawn",
      "type": "event"
    },
    {
      "anonymous": false,
      "inputs": [
        {
          "indexed": true,
          "name": "_address",
          "type": "address"
        },
        {
          "indexed": false,
          "name": "_memberName",
          "type": "string"
        },
        {
          "indexed": false,
          "name": "_amount",
          "type": "uint256"
        },
        {
          "indexed": false,
          "name": "_releaseOn",
          "type": "uint256"
        }
      ],
      "name": "AllocationCreated",
      "type": "event"
    },
    {
      "anonymous": false,
      "inputs": [
        {
          "indexed": true,
          "name": "_address",
          "type": "address"
        },
        {
          "indexed": false,
          "name": "_memberName",
          "type": "string"
        },
        {
          "indexed": false,
          "name": "_amount",
          "type": "uint256"
        },
        {
          "indexed": false,
          "name": "_additionalAmount",
          "type": "uint256"
        }
      ],
      "name": "AllocationIncreased",
      "type": "event"
    },
    {
      "anonymous": false,
      "inputs": [
        {
          "indexed": true,
          "name": "_address",
          "type": "address"
        },
        {
          "indexed": false,
          "name": "_memberName",
          "type": "string"
        },
        {
          "indexed": false,
          "name": "_amount",
          "type": "uint256"
        },
        {
          "indexed": false,
          "name": "_lessAmount",
          "type": "uint256"
        }
      ],
      "name": "AllocationDecreased",
      "type": "event"
    },
    {
      "anonymous": false,
      "inputs": [
        {
          "indexed": true,
          "name": "_address",
          "type": "address"
        },
        {
          "indexed": false,
          "name": "_memberName",
          "type": "string"
        },
        {
          "indexed": false,
          "name": "_amount",
          "type": "uint256"
        }
      ],
      "name": "AllocationDeleted",
      "type": "event"
    },
    {
      "anonymous": false,
      "inputs": [
        {
          "indexed": true,
          "name": "_address",
          "type": "address"
        },
        {
          "indexed": false,
          "name": "_memberName",
          "type": "string"
        },
        {
          "indexed": false,
          "name": "_releaseOn",
          "type": "uint256"
        },
        {
          "indexed": false,
          "name": "_newReleaseDate",
          "type": "uint256"
        }
      ],
      "name": "ScheduleExtended",
      "type": "event"
    },
    {
      "anonymous": false,
      "inputs": [],
      "name": "Pause",
      "type": "event"
    },
    {
      "anonymous": false,
      "inputs": [],
      "name": "Unpause",
      "type": "event"
    },
    {
      "anonymous": false,
      "inputs": [
        {
          "indexed": true,
          "name": "_address",
          "type": "address"
        }
      ],
      "name": "AdminAdded",
      "type": "event"
    },
    {
      "anonymous": false,
      "inputs": [
        {
          "indexed": true,
          "name": "_address",
          "type": "address"
        }
      ],
      "name": "AdminRemoved",
      "type": "event"
    },
    {
      "anonymous": false,
      "inputs": [
        {
          "indexed": true,
          "name": "previousOwner",
          "type": "address"
        }
      ],
      "name": "OwnershipRenounced",
      "type": "event"
    },
    {
      "anonymous": false,
      "inputs": [
        {
          "indexed": true,
          "name": "previousOwner",
          "type": "address"
        },
        {
          "indexed": true,
          "name": "newOwner",
          "type": "address"
        }
      ],
      "name": "OwnershipTransferred",
      "type": "event"
    },
    {
      "constant": false,
      "inputs": [],
      "name": "fund",
      "outputs": [
        {
          "name": "",
          "type": "bool"
        }
      ],
      "payable": false,
      "stateMutability": "nonpayable",
      "type": "function"
    },
    {
      "constant": false,
      "inputs": [
        {
          "name": "_amount",
          "type": "uint256"
        }
      ],
      "name": "removeFunds",
      "outputs": [
        {
          "name": "",
          "type": "bool"
        }
      ],
      "payable": false,
      "stateMutability": "nonpayable",
      "type": "function"
    },
    {
      "constant": false,
      "inputs": [
        {
          "name": "_address",
          "type": "address"
        },
        {
          "name": "_memberName",
          "type": "string"
        },
        {
          "name": "_amount",
          "type": "uint256"
        },
        {
          "name": "_releaseOn",
          "type": "uint256"
        }
      ],
      "name": "createAllocation",
      "outputs": [
        {
          "name": "",
          "type": "bool"
        }
      ],
      "payable": false,
      "stateMutability": "nonpayable",
      "type": "function"
    },
    {
      "constant": false,
      "inputs": [
        {
          "name": "_address",
          "type": "address"
        }
      ],
      "name": "deleteAllocation",
      "outputs": [
        {
          "name": "",
          "type": "bool"
        }
      ],
      "payable": false,
      "stateMutability": "nonpayable",
      "type": "function"
    },
    {
      "constant": false,
      "inputs": [
        {
          "name": "_address",
          "type": "address"
        },
        {
          "name": "_additionalAmount",
          "type": "uint256"
        }
      ],
      "name": "increaseAllocation",
      "outputs": [
        {
          "name": "",
          "type": "bool"
        }
      ],
      "payable": false,
      "stateMutability": "nonpayable",
      "type": "function"
    },
    {
      "constant": false,
      "inputs": [
        {
          "name": "_address",
          "type": "address"
        },
        {
          "name": "_lessAmount",
          "type": "uint256"
        }
      ],
      "name": "decreaseAllocation",
      "outputs": [
        {
          "name": "",
          "type": "bool"
        }
      ],
      "payable": false,
      "stateMutability": "nonpayable",
      "type": "function"
    },
    {
      "constant": false,
      "inputs": [
        {
          "name": "_address",
          "type": "address"
        },
        {
          "name": "_newReleaseDate",
          "type": "uint256"
        }
      ],
      "name": "extendAllocation",
      "outputs": [
        {
          "name": "",
          "type": "bool"
        }
      ],
      "payable": false,
      "stateMutability": "nonpayable",
      "type": "function"
    },
    {
      "constant": true,
      "inputs": [
        {
          "name": "_address",
          "type": "address"
        }
      ],
      "name": "getDrawingPower",
      "outputs": [
        {
          "name": "",
          "type": "uint256"
        }
      ],
      "payable": false,
      "stateMutability": "view",
      "type": "function"
    },
    {
      "constant": false,
      "inputs": [
        {
          "name": "_amount",
          "type": "uint256"
        }
      ],
      "name": "withdraw",
      "outputs": [
        {
          "name": "",
          "type": "bool"
        }
      ],
      "payable": false,
      "stateMutability": "nonpayable",
      "type": "function"
    }
  ],
  "bytecode": "0x60806040526000600260006101000a81548160ff0219169083151502179055503480156200002c57600080fd5b50604051608080620052be83398101806040528101908080519060200190929190805190602001909291908051906020019092919080519060200190929190505050838382336000806101000a81548173ffffffffffffffffffffffffffffffffffffffff021916908373ffffffffffffffffffffffffffffffffffffffff160217905550826006819055504260058190555080600a60006101000a81548173ffffffffffffffffffffffffffffffffffffffff021916908373ffffffffffffffffffffffffffffffffffffffff16021790555081600381905550505050620001316006546005546200016c6401000000000262004e06179091906401000000009004565b600781905550600083111562000162576200015b8262000189640100000000026401000000009004565b6004819055505b50505050620002ab565b600081830190508281101515156200018057fe5b80905092915050565b60008060068111156200019857fe5b826006811115620001a557fe5b1415620001b857620151809050620002a6565b60016006811115620001c657fe5b826006811115620001d357fe5b1415620001e65762093a809050620002a6565b60026006811115620001f457fe5b8260068111156200020157fe5b141562000214576213c6809050620002a6565b600360068111156200022257fe5b8260068111156200022f57fe5b1415620002425762278d009050620002a6565b600460068111156200025057fe5b8260068111156200025d57fe5b141562000270576277f8809050620002a6565b600560068111156200027e57fe5b8260068111156200028b57fe5b14156200029e5762eff1009050620002a6565b6301e1338090505b919050565b61500380620002bb6000396000f30060806040526004361061018b576000357c0100000000000000000000000000000000000000000000000000000000900463ffffffff1680630715a0b4146101905780630e022923146101f5578063158a774d146102e65780631785f53c1461034b578063199cbc541461038e5780632e1a7d4d146103b95780632f384523146103fe5780633792bab4146104435780633f4ba83a1461046e578063429b62e5146104855780634713a044146104e05780634b3197131461050b578063517b4912146105365780635195bd29146105bd5780635c975abb146105e85780637048027514610617578063706250c81461065a578063715018a61461068557806378ee3af61461069c5780638456cb59146106c75780638971611c146106de5780638da5cb5b14610709578063936bf97814610760578063a065b0bd146107c5578063a8e6e77b1461081c578063b60d428814610857578063dba61ab714610886578063e4353ad6146108b1578063f1bca30f14610908578063f2fde38b14610943578063fad36ece14610986575b600080fd5b34801561019c57600080fd5b506101db600480360381019080803573ffffffffffffffffffffffffffffffffffffffff169060200190929190803590602001909291905050506109e1565b604051808215151515815260200191505060405180910390f35b34801561020157600080fd5b50610236600480360381019080803573ffffffffffffffffffffffffffffffffffffffff16906020019092919050505061109f565b604051808981526020018060200188815260200187815260200186815260200185815260200184815260200183151515158152602001828103825289818151815260200191508051906020019080838360005b838110156102a4578082015181840152602081019050610289565b50505050905090810190601f1680156102d15780820380516001836020036101000a031916815260200191505b50995050505050505050505060405180910390f35b3480156102f257600080fd5b50610331600480360381019080803573ffffffffffffffffffffffffffffffffffffffff16906020019092919080359060200190929190505050611384565b604051808215151515815260200191505060405180910390f35b34801561035757600080fd5b5061038c600480360381019080803573ffffffffffffffffffffffffffffffffffffffff169060200190929190505050611a64565b005b34801561039a57600080fd5b506103a3611ca1565b6040518082815260200191505060405180910390f35b3480156103c557600080fd5b506103e460048036038101908080359060200190929190505050611ca7565b604051808215151515815260200191505060405180910390f35b34801561040a57600080fd5b5061042960048036038101908080359060200190929190505050612505565b604051808215151515815260200191505060405180910390f35b34801561044f57600080fd5b5061045861285f565b6040518082815260200191505060405180910390f35b34801561047a57600080fd5b50610483612865565b005b34801561049157600080fd5b506104c6600480360381019080803573ffffffffffffffffffffffffffffffffffffffff169060200190929190505050612978565b604051808215151515815260200191505060405180910390f35b3480156104ec57600080fd5b506104f5612998565b6040518082815260200191505060405180910390f35b34801561051757600080fd5b5061052061299e565b6040518082815260200191505060405180910390f35b34801561054257600080fd5b506105a3600480360381019080803573ffffffffffffffffffffffffffffffffffffffff16906020019092919080359060200190820180359060200191909192939192939080359060200190929190803590602001909291905050506129a4565b604051808215151515815260200191505060405180910390f35b3480156105c957600080fd5b506105d2612f7d565b6040518082815260200191505060405180910390f35b3480156105f457600080fd5b506105fd61307c565b604051808215151515815260200191505060405180910390f35b34801561062357600080fd5b50610658600480360381019080803573ffffffffffffffffffffffffffffffffffffffff16906020019092919050505061308f565b005b34801561066657600080fd5b5061066f6132cc565b6040518082815260200191505060405180910390f35b34801561069157600080fd5b5061069a6132d2565b005b3480156106a857600080fd5b506106b16133d4565b6040518082815260200191505060405180910390f35b3480156106d357600080fd5b506106dc6133da565b005b3480156106ea57600080fd5b506106f36134ee565b6040518082815260200191505060405180910390f35b34801561071557600080fd5b5061071e6134f4565b604051808273ffffffffffffffffffffffffffffffffffffffff1673ffffffffffffffffffffffffffffffffffffffff16815260200191505060405180910390f35b34801561076c57600080fd5b506107ab600480360381019080803573ffffffffffffffffffffffffffffffffffffffff16906020019092919080359060200190929190505050613519565b604051808215151515815260200191505060405180910390f35b3480156107d157600080fd5b506107da613c40565b604051808273ffffffffffffffffffffffffffffffffffffffff1673ffffffffffffffffffffffffffffffffffffffff16815260200191505060405180910390f35b34801561082857600080fd5b50610855600480360381019080803590602001908201803590602001919091929391929390505050613c66565b005b34801561086357600080fd5b5061086c613f1b565b604051808215151515815260200191505060405180910390f35b34801561089257600080fd5b5061089b61432c565b6040518082815260200191505060405180910390f35b3480156108bd57600080fd5b506108f2600480360381019080803573ffffffffffffffffffffffffffffffffffffffff16906020019092919050505061434a565b6040518082815260200191505060405180910390f35b34801561091457600080fd5b50610941600480360381019080803590602001908201803590602001919091929391929390505050614489565b005b34801561094f57600080fd5b50610984600480360381019080803573ffffffffffffffffffffffffffffffffffffffff16906020019092919050505061473e565b005b34801561099257600080fd5b506109c7600480360381019080803573ffffffffffffffffffffffffffffffffffffffff1690602001909291905050506147a5565b604051808215151515815260200191505060405180910390f35b600080600160003373ffffffffffffffffffffffffffffffffffffffff1673ffffffffffffffffffffffffffffffffffffffff16815260200190815260200160002060009054906101000a900460ff1680610a8857506000809054906101000a900473ffffffffffffffffffffffffffffffffffffffff1673ffffffffffffffffffffffffffffffffffffffff163373ffffffffffffffffffffffffffffffffffffffff16145b1515610a9357600080fd5b600073ffffffffffffffffffffffffffffffffffffffff168473ffffffffffffffffffffffffffffffffffffffff1614151515610b38576040517f08c379a00000000000000000000000000000000000000000000000000000000081526004018080602001828103825260108152602001807f496e76616c696420616464726573732e0000000000000000000000000000000081525060200191505060405180910390fd5b6000600b60008673ffffffffffffffffffffffffffffffffffffffff1673ffffffffffffffffffffffffffffffffffffffff16815260200190815260200160002060010154111515610c18576040517f08c379a000000000000000000000000000000000000000000000000000000000815260040180806020018281038252603c8152602001807f4163636573732069732064656e6965642e20526571756573746564207665737481526020017f696e67207363686564756c6520646f6573206e6f742065786973742e0000000081525060400191505060405180910390fd5b600b60008573ffffffffffffffffffffffffffffffffffffffff1673ffffffffffffffffffffffffffffffffffffffff16815260200190815260200160002060050160009054906101000a900460ff16151515610d03576040517f08c379a000000000000000000000000000000000000000000000000000000000815260040180806020018281038252603c8152602001807f4163636573732069732064656e6965642e20526571756573746564207665737481526020017f696e67207363686564756c6520646f6573206e6f742065786973742e0000000081525060400191505060405180910390fd5b600b60008573ffffffffffffffffffffffffffffffffffffffff1673ffffffffffffffffffffffffffffffffffffffff1681526020019081526020016000206002015442101515610de2576040517f08c379a000000000000000000000000000000000000000000000000000000000815260040180806020018281038252603c8152602001807f4163636573732069732064656e6965642e205468652076657374696e6720736381526020017f686564756c652077617320616c72656164792072656c65617365642e0000000081525060400191505060405180910390fd5b600b60008573ffffffffffffffffffffffffffffffffffffffff1673ffffffffffffffffffffffffffffffffffffffff1681526020019081526020016000206002015483111515610ee7576040517f08c379a00000000000000000000000000000000000000000000000000000000081526004018080602001828103825260548152602001807f4163636573732069732064656e6965642e20596f752063616e20616c736f206581526020017f7874656e64207468652072656c65617365206461746520627574206e6f74207481526020017f6865206f74686572207761792061726f756e642e00000000000000000000000081525060600191505060405180910390fd5b600b60008573ffffffffffffffffffffffffffffffffffffffff1673ffffffffffffffffffffffffffffffffffffffff16815260200190815260200160002060020154905082600b60008673ffffffffffffffffffffffffffffffffffffffff1673ffffffffffffffffffffffffffffffffffffffff168152602001908152602001600020600201819055508373ffffffffffffffffffffffffffffffffffffffff167f48e5c889579453e84d06f5962fd80461fe15c76d7b30530d52d1ae5617571a76600b60008773ffffffffffffffffffffffffffffffffffffffff1673ffffffffffffffffffffffffffffffffffffffff168152602001908152602001600020600001838660405180806020018481526020018381526020018281038252858181546001816001161561010002031660029004815260200191508054600181600116156101000203166002900480156110845780601f1061105957610100808354040283529160200191611084565b820191906000526020600020905b81548152906001019060200180831161106757829003601f168201915b505094505050505060405180910390a2600191505092915050565b60006060600080600080600080600b60008a73ffffffffffffffffffffffffffffffffffffffff1673ffffffffffffffffffffffffffffffffffffffff168152602001908152602001600020600101549750600b60008a73ffffffffffffffffffffffffffffffffffffffff1673ffffffffffffffffffffffffffffffffffffffff1681526020019081526020016000206000018054600181600116156101000203166002900480601f0160208091040260200160405190810160405280929190818152602001828054600181600116156101000203166002900480156111c75780601f1061119c576101008083540402835291602001916111c7565b820191906000526020600020905b8154815290600101906020018083116111aa57829003601f168201915b50505050509650600b60008a73ffffffffffffffffffffffffffffffffffffffff1673ffffffffffffffffffffffffffffffffffffffff168152602001908152602001600020600201549550600b60008a73ffffffffffffffffffffffffffffffffffffffff1673ffffffffffffffffffffffffffffffffffffffff168152602001908152602001600020600301549450600b60008a73ffffffffffffffffffffffffffffffffffffffff1673ffffffffffffffffffffffffffffffffffffffff168152602001908152602001600020600401549350600b60008a73ffffffffffffffffffffffffffffffffffffffff1673ffffffffffffffffffffffffffffffffffffffff168152602001908152602001600020600601549250600b60008a73ffffffffffffffffffffffffffffffffffffffff1673ffffffffffffffffffffffffffffffffffffffff168152602001908152602001600020600701549150600b60008a73ffffffffffffffffffffffffffffffffffffffff1673ffffffffffffffffffffffffffffffffffffffff16815260200190815260200160002060050160009054906101000a900460ff169050919395975091939597565b6000600160003373ffffffffffffffffffffffffffffffffffffffff1673ffffffffffffffffffffffffffffffffffffffff16815260200190815260200160002060009054906101000a900460ff168061142a57506000809054906101000a900473ffffffffffffffffffffffffffffffffffffffff1673ffffffffffffffffffffffffffffffffffffffff163373ffffffffffffffffffffffffffffffffffffffff16145b151561143557600080fd5b600073ffffffffffffffffffffffffffffffffffffffff168373ffffffffffffffffffffffffffffffffffffffff16141515156114da576040517f08c379a00000000000000000000000000000000000000000000000000000000081526004018080602001828103825260108152602001807f496e76616c696420616464726573732e0000000000000000000000000000000081525060200191505060405180910390fd5b6000821115156114e957600080fd5b6000600b60008573ffffffffffffffffffffffffffffffffffffffff1673ffffffffffffffffffffffffffffffffffffffff168152602001908152602001600020600101541115156115c9576040517f08c379a000000000000000000000000000000000000000000000000000000000815260040180806020018281038252603c8152602001807f4163636573732069732064656e6965642e20526571756573746564207665737481526020017f696e67207363686564756c6520646f6573206e6f742065786973742e0000000081525060400191505060405180910390fd5b600b60008473ffffffffffffffffffffffffffffffffffffffff1673ffffffffffffffffffffffffffffffffffffffff16815260200190815260200160002060050160009054906101000a900460ff161515156116b4576040517f08c379a000000000000000000000000000000000000000000000000000000000815260040180806020018281038252603c8152602001807f4163636573732069732064656e6965642e20526571756573746564207665737481526020017f696e67207363686564756c6520646f6573206e6f742065786973742e0000000081525060400191505060405180910390fd5b81600b60008573ffffffffffffffffffffffffffffffffffffffff1673ffffffffffffffffffffffffffffffffffffffff1681526020019081526020016000206004015410151515611794576040517f08c379a00000000000000000000000000000000000000000000000000000000081526004018080602001828103825260258152602001807f4163636573732069732064656e6965642e20496e73756666696369656e74206681526020017f756e64732e00000000000000000000000000000000000000000000000000000081525060400191505060405180910390fd5b6117e982600b60008673ffffffffffffffffffffffffffffffffffffffff1673ffffffffffffffffffffffffffffffffffffffff16815260200190815260200160002060030154614ded90919063ffffffff16565b600b60008573ffffffffffffffffffffffffffffffffffffffff1673ffffffffffffffffffffffffffffffffffffffff1681526020019081526020016000206003018190555061188482600b60008673ffffffffffffffffffffffffffffffffffffffff1673ffffffffffffffffffffffffffffffffffffffff16815260200190815260200160002060040154614ded90919063ffffffff16565b600b60008573ffffffffffffffffffffffffffffffffffffffff1673ffffffffffffffffffffffffffffffffffffffff168152602001908152602001600020600401819055506118df82600854614ded90919063ffffffff16565b6008819055508273ffffffffffffffffffffffffffffffffffffffff167ffefe834c14ff63083c08dce2085888585b19e1b43198dde06d97a38a8379f21d600b60008673ffffffffffffffffffffffffffffffffffffffff1673ffffffffffffffffffffffffffffffffffffffff1681526020019081526020016000206000016119b485600b60008973ffffffffffffffffffffffffffffffffffffffff1673ffffffffffffffffffffffffffffffffffffffff16815260200190815260200160002060030154614e0690919063ffffffff16565b856040518080602001848152602001838152602001828103825285818154600181600116156101000203166002900481526020019150805460018160011615610100020316600290048015611a4a5780601f10611a1f57610100808354040283529160200191611a4a565b820191906000526020600020905b815481529060010190602001808311611a2d57829003601f168201915b505094505050505060405180910390a26001905092915050565b600160003373ffffffffffffffffffffffffffffffffffffffff1673ffffffffffffffffffffffffffffffffffffffff16815260200190815260200160002060009054906101000a900460ff1680611b0857506000809054906101000a900473ffffffffffffffffffffffffffffffffffffffff1673ffffffffffffffffffffffffffffffffffffffff163373ffffffffffffffffffffffffffffffffffffffff16145b1515611b1357600080fd5b600073ffffffffffffffffffffffffffffffffffffffff168173ffffffffffffffffffffffffffffffffffffffff1614151515611b4f57600080fd5b600160008273ffffffffffffffffffffffffffffffffffffffff1673ffffffffffffffffffffffffffffffffffffffff16815260200190815260200160002060009054906101000a900460ff161515611ba757600080fd5b6000809054906101000a900473ffffffffffffffffffffffffffffffffffffffff1673ffffffffffffffffffffffffffffffffffffffff168173ffffffffffffffffffffffffffffffffffffffff1614151515611c0357600080fd5b6000600160008373ffffffffffffffffffffffffffffffffffffffff1673ffffffffffffffffffffffffffffffffffffffff16815260200190815260200160002060006101000a81548160ff0219169083151502179055508073ffffffffffffffffffffffffffffffffffffffff167fa3b62bc36326052d97ea62d63c3d60308ed4c3ea8ac079dd8499f1e9c4f80c0f60405160405180910390a250565b60085481565b600081600080600b60003373ffffffffffffffffffffffffffffffffffffffff1673ffffffffffffffffffffffffffffffffffffffff16815260200190815260200160002060010154111515611d8b576040517f08c379a000000000000000000000000000000000000000000000000000000000815260040180806020018281038252603c8152602001807f4163636573732069732064656e6965642e20526571756573746564207665737481526020017f696e67207363686564756c6520646f6573206e6f742065786973742e0000000081525060400191505060405180910390fd5b600b60003373ffffffffffffffffffffffffffffffffffffffff1673ffffffffffffffffffffffffffffffffffffffff16815260200190815260200160002060050160009054906101000a900460ff16151515611e76576040517f08c379a000000000000000000000000000000000000000000000000000000000815260040180806020018281038252603c8152602001807f4163636573732069732064656e6965642e20526571756573746564207665737481526020017f696e67207363686564756c6520646f6573206e6f742065786973742e0000000081525060400191505060405180910390fd5b600b60003373ffffffffffffffffffffffffffffffffffffffff1673ffffffffffffffffffffffffffffffffffffffff168152602001908152602001600020600201544210151515611f7c576040517f08c379a000000000000000000000000000000000000000000000000000000000815260040180806020018281038252604a8152602001807f4163636573732069732064656e6965642e20596f7520617265206e6f7420616c81526020017f6c6f77656420746f207769746864726177206265666f7265207468652072656c81526020017f6561736520646174652e0000000000000000000000000000000000000000000081525060600191505060405180910390fd5b81600b60003373ffffffffffffffffffffffffffffffffffffffff1673ffffffffffffffffffffffffffffffffffffffff168152602001908152602001600020600401541015151561205c576040517f08c379a00000000000000000000000000000000000000000000000000000000081526004018080602001828103825260258152602001807f4163636573732069732064656e6965642e20496e73756666696369656e74206681526020017f756e64732e00000000000000000000000000000000000000000000000000000081525060400191505060405180910390fd5b6120653361434a565b9050600060035411156124fe57818110151515612110576040517f08c379a000000000000000000000000000000000000000000000000000000000815260040180806020018281038252603f8152602001807f4163636573732069732064656e6965642e20546865207265717565737465642081526020017f616d6f756e74206578636565647320796f757220616c6c6f636174696f6e2e0081525060400191505060405180910390fd5b600754421015151561212157600080fd5b600260009054906101000a900460ff1615151561213d57600080fd5b42600b60003373ffffffffffffffffffffffffffffffffffffffff1673ffffffffffffffffffffffffffffffffffffffff168152602001908152602001600020600701819055506121d984600b60003373ffffffffffffffffffffffffffffffffffffffff1673ffffffffffffffffffffffffffffffffffffffff16815260200190815260200160002060040154614ded90919063ffffffff16565b600b60003373ffffffffffffffffffffffffffffffffffffffff1673ffffffffffffffffffffffffffffffffffffffff1681526020019081526020016000206004018190555061227484600b60003373ffffffffffffffffffffffffffffffffffffffff1673ffffffffffffffffffffffffffffffffffffffff16815260200190815260200160002060060154614e0690919063ffffffff16565b600b60003373ffffffffffffffffffffffffffffffffffffffff1673ffffffffffffffffffffffffffffffffffffffff168152602001908152602001600020600601819055506122cf84600954614e0690919063ffffffff16565b600981905550600a60009054906101000a900473ffffffffffffffffffffffffffffffffffffffff1673ffffffffffffffffffffffffffffffffffffffff1663a9059cbb33866040518363ffffffff167c0100000000000000000000000000000000000000000000000000000000028152600401808373ffffffffffffffffffffffffffffffffffffffff1673ffffffffffffffffffffffffffffffffffffffff16815260200182815260200192505050602060405180830381600087803b15801561239a57600080fd5b505af11580156123ae573d6000803e3d6000fd5b505050506040513d60208110156123c457600080fd5b810190808051906020019092919050505015156123e057600080fd5b3373ffffffffffffffffffffffffffffffffffffffff167f18af30a54a1951aeee806c16cdcb8d087ed1a095f0d9a87261b92cef2c6cc92d600b60003373ffffffffffffffffffffffffffffffffffffffff1673ffffffffffffffffffffffffffffffffffffffff1681526020019081526020016000206000018660405180806020018381526020018281038252848181546001816001161561010002031660029004815260200191508054600181600116156101000203166002900480156124ea5780601f106124bf576101008083540402835291602001916124ea565b820191906000526020600020905b8154815290600101906020018083116124cd57829003601f168201915b5050935050505060405180910390a2600192505b5050919050565b600080600080600160003373ffffffffffffffffffffffffffffffffffffffff1673ffffffffffffffffffffffffffffffffffffffff16815260200190815260200160002060009054906101000a900460ff16806125af57506000809054906101000a900473ffffffffffffffffffffffffffffffffffffffff1673ffffffffffffffffffffffffffffffffffffffff163373ffffffffffffffffffffffffffffffffffffffff16145b15156125ba57600080fd5b600a60009054906101000a900473ffffffffffffffffffffffffffffffffffffffff1673ffffffffffffffffffffffffffffffffffffffff166370a08231306040518263ffffffff167c0100000000000000000000000000000000000000000000000000000000028152600401808273ffffffffffffffffffffffffffffffffffffffff1673ffffffffffffffffffffffffffffffffffffffff168152602001915050602060405180830381600087803b15801561267757600080fd5b505af115801561268b573d6000803e3d6000fd5b505050506040513d60208110156126a157600080fd5b810190808051906020019092919050505092506126bc61432c565b915081831115156126cc57600080fd5b81830390508481101515156126e057600080fd5b600a60009054906101000a900473ffffffffffffffffffffffffffffffffffffffff1673ffffffffffffffffffffffffffffffffffffffff1663a9059cbb33876040518363ffffffff167c0100000000000000000000000000000000000000000000000000000000028152600401808373ffffffffffffffffffffffffffffffffffffffff1673ffffffffffffffffffffffffffffffffffffffff16815260200182815260200192505050602060405180830381600087803b1580156127a557600080fd5b505af11580156127b9573d6000803e3d6000fd5b505050506040513d60208110156127cf57600080fd5b810190808051906020019092919050505015156127eb57600080fd5b3373ffffffffffffffffffffffffffffffffffffffff167f2d2c22b12ce2c4142ec672b74a307ec23572019efd8c9a930a8fc19f0fcd6c86866128378885614ded90919063ffffffff16565b604051808381526020018281526020019250505060405180910390a260019350505050919050565b60045481565b600160003373ffffffffffffffffffffffffffffffffffffffff1673ffffffffffffffffffffffffffffffffffffffff16815260200190815260200160002060009054906101000a900460ff168061290957506000809054906101000a900473ffffffffffffffffffffffffffffffffffffffff1673ffffffffffffffffffffffffffffffffffffffff163373ffffffffffffffffffffffffffffffffffffffff16145b151561291457600080fd5b600260009054906101000a900460ff16151561292f57600080fd5b6000600260006101000a81548160ff0219169083151502179055507f7805862f689e2f13df9f062ff482ad3ad112aca9e0847911ed832e158c525b3360405160405180910390a1565b60016020528060005260406000206000915054906101000a900460ff1681565b60055481565b60095481565b6000600160003373ffffffffffffffffffffffffffffffffffffffff1673ffffffffffffffffffffffffffffffffffffffff16815260200190815260200160002060009054906101000a900460ff1680612a4a57506000809054906101000a900473ffffffffffffffffffffffffffffffffffffffff1673ffffffffffffffffffffffffffffffffffffffff163373ffffffffffffffffffffffffffffffffffffffff16145b1515612a5557600080fd5b600073ffffffffffffffffffffffffffffffffffffffff168673ffffffffffffffffffffffffffffffffffffffff1614151515612afa576040517f08c379a00000000000000000000000000000000000000000000000000000000081526004018080602001828103825260108152602001807f496e76616c696420616464726573732e0000000000000000000000000000000081525060200191505060405180910390fd5b600083111515612b72576040517f08c379a000000000000000000000000000000000000000000000000000000000815260040180806020018281038252600f8152602001807f496e76616c696420616d6f756e742e000000000000000000000000000000000081525060200191505060405180910390fd5b6000600b60008873ffffffffffffffffffffffffffffffffffffffff1673ffffffffffffffffffffffffffffffffffffffff16815260200190815260200160002060010154141515612c52576040517f08c379a00000000000000000000000000000000000000000000000000000000081526004018080602001828103825260228152602001807f4163636573732069732064656e6965642e204475706c696361746520656e747281526020017f792e00000000000000000000000000000000000000000000000000000000000081525060400191505060405180910390fd5b6007548210151515612cf2576040517f08c379a00000000000000000000000000000000000000000000000000000000081526004018080602001828103825260398152602001807f4163636573732069732064656e6965642e20506c65617365207370656369667981526020017f2061206c6f6e6765722076657374696e6720706572696f642e0000000000000081525060400191505060405180910390fd5b612d0c83612cfe61432c565b614e0690919063ffffffff16565b612d14612f7d565b10151515612db0576040517f08c379a000000000000000000000000000000000000000000000000000000000815260040180806020018281038252603d8152602001807f4163636573732069732064656e6965642e20496e73756666696369656e74206281526020017f616c616e63652c2076657374696e67206361702065786365656465642e00000081525060400191505060405180910390fd5b6101006040519081016040528086868080601f0160208091040260200160405190810160405280939291908181526020018383808284378201915050505050508152602001428152602001838152602001848152602001848152602001600015158152602001600081526020016000815250600b60008873ffffffffffffffffffffffffffffffffffffffff1673ffffffffffffffffffffffffffffffffffffffff1681526020019081526020016000206000820151816000019080519060200190612e7d929190614f32565b506020820151816001015560408201518160020155606082015181600301556080820151816004015560a08201518160050160006101000a81548160ff02191690831515021790555060c0820151816006015560e08201518160070155905050612ef283600854614e0690919063ffffffff16565b6008819055508573ffffffffffffffffffffffffffffffffffffffff167f31dde06dd1e0aaacd2d32511680629725c65c6048e70ece46b47a9eb210a5b16868686866040518080602001848152602001838152602001828103825286868281815260200192508082843782019150509550505050505060405180910390a26001905095945050505050565b6000600a60009054906101000a900473ffffffffffffffffffffffffffffffffffffffff1673ffffffffffffffffffffffffffffffffffffffff166370a08231306040518263ffffffff167c0100000000000000000000000000000000000000000000000000000000028152600401808273ffffffffffffffffffffffffffffffffffffffff1673ffffffffffffffffffffffffffffffffffffffff168152602001915050602060405180830381600087803b15801561303c57600080fd5b505af1158015613050573d6000803e3d6000fd5b505050506040513d602081101561306657600080fd5b8101908080519060200190929190505050905090565b600260009054906101000a900460ff1681565b600160003373ffffffffffffffffffffffffffffffffffffffff1673ffffffffffffffffffffffffffffffffffffffff16815260200190815260200160002060009054906101000a900460ff168061313357506000809054906101000a900473ffffffffffffffffffffffffffffffffffffffff1673ffffffffffffffffffffffffffffffffffffffff163373ffffffffffffffffffffffffffffffffffffffff16145b151561313e57600080fd5b600073ffffffffffffffffffffffffffffffffffffffff168173ffffffffffffffffffffffffffffffffffffffff161415151561317a57600080fd5b600160008273ffffffffffffffffffffffffffffffffffffffff1673ffffffffffffffffffffffffffffffffffffffff16815260200190815260200160002060009054906101000a900460ff161515156131d357600080fd5b6000809054906101000a900473ffffffffffffffffffffffffffffffffffffffff1673ffffffffffffffffffffffffffffffffffffffff168173ffffffffffffffffffffffffffffffffffffffff161415151561322f57600080fd5b60018060008373ffffffffffffffffffffffffffffffffffffffff1673ffffffffffffffffffffffffffffffffffffffff16815260200190815260200160002060006101000a81548160ff0219169083151502179055508073ffffffffffffffffffffffffffffffffffffffff167f44d6d25963f097ad14f29f06854a01f575648a1ef82f30e562ccd3889717e33960405160405180910390a250565b60065481565b6000809054906101000a900473ffffffffffffffffffffffffffffffffffffffff1673ffffffffffffffffffffffffffffffffffffffff163373ffffffffffffffffffffffffffffffffffffffff1614151561332d57600080fd5b6000809054906101000a900473ffffffffffffffffffffffffffffffffffffffff1673ffffffffffffffffffffffffffffffffffffffff167ff8df31144d9c2f0f6b59d69b8b98abd5459d07f2742c4df920b25aae33c6482060405160405180910390a260008060006101000a81548173ffffffffffffffffffffffffffffffffffffffff021916908373ffffffffffffffffffffffffffffffffffffffff160217905550565b60075481565b600160003373ffffffffffffffffffffffffffffffffffffffff1673ffffffffffffffffffffffffffffffffffffffff16815260200190815260200160002060009054906101000a900460ff168061347e57506000809054906101000a900473ffffffffffffffffffffffffffffffffffffffff1673ffffffffffffffffffffffffffffffffffffffff163373ffffffffffffffffffffffffffffffffffffffff16145b151561348957600080fd5b600260009054906101000a900460ff161515156134a557600080fd5b6001600260006101000a81548160ff0219169083151502179055507f6985a02210a168e66602d3235cb6db0e70f92b3ba4d376a33c0f3d9434bff62560405160405180910390a1565b60035481565b6000809054906101000a900473ffffffffffffffffffffffffffffffffffffffff1681565b6000600160003373ffffffffffffffffffffffffffffffffffffffff1673ffffffffffffffffffffffffffffffffffffffff16815260200190815260200160002060009054906101000a900460ff16806135bf57506000809054906101000a900473ffffffffffffffffffffffffffffffffffffffff1673ffffffffffffffffffffffffffffffffffffffff163373ffffffffffffffffffffffffffffffffffffffff16145b15156135ca57600080fd5b600073ffffffffffffffffffffffffffffffffffffffff168373ffffffffffffffffffffffffffffffffffffffff161415151561366f576040517f08c379a00000000000000000000000000000000000000000000000000000000081526004018080602001828103825260108152602001807f496e76616c696420616464726573732e0000000000000000000000000000000081525060200191505060405180910390fd5b6000821115156136e7576040517f08c379a000000000000000000000000000000000000000000000000000000000815260040180806020018281038252600f8152602001807f496e76616c696420616d6f756e742e000000000000000000000000000000000081525060200191505060405180910390fd5b6000600b60008573ffffffffffffffffffffffffffffffffffffffff1673ffffffffffffffffffffffffffffffffffffffff168152602001908152602001600020600101541115156137c7576040517f08c379a000000000000000000000000000000000000000000000000000000000815260040180806020018281038252603c8152602001807f4163636573732069732064656e6965642e20526571756573746564207665737481526020017f696e67207363686564756c6520646f6573206e6f742065786973742e0000000081525060400191505060405180910390fd5b600b60008473ffffffffffffffffffffffffffffffffffffffff1673ffffffffffffffffffffffffffffffffffffffff16815260200190815260200160002060050160009054906101000a900460ff161515156138b2576040517f08c379a000000000000000000000000000000000000000000000000000000000815260040180806020018281038252603c8152602001807f4163636573732069732064656e6965642e20526571756573746564207665737481526020017f696e67207363686564756c6520646f6573206e6f742065786973742e0000000081525060400191505060405180910390fd5b6138cc826138be61432c565b614e0690919063ffffffff16565b6138d4612f7d565b10151515613970576040517f08c379a000000000000000000000000000000000000000000000000000000000815260040180806020018281038252603d8152602001807f4163636573732069732064656e6965642e20496e73756666696369656e74206281526020017f616c616e63652c2076657374696e67206361702065786365656465642e00000081525060400191505060405180910390fd5b6139c582600b60008673ffffffffffffffffffffffffffffffffffffffff1673ffffffffffffffffffffffffffffffffffffffff16815260200190815260200160002060030154614e0690919063ffffffff16565b600b60008573ffffffffffffffffffffffffffffffffffffffff1673ffffffffffffffffffffffffffffffffffffffff16815260200190815260200160002060030181905550613a6082600b60008673ffffffffffffffffffffffffffffffffffffffff1673ffffffffffffffffffffffffffffffffffffffff16815260200190815260200160002060040154614e0690919063ffffffff16565b600b60008573ffffffffffffffffffffffffffffffffffffffff1673ffffffffffffffffffffffffffffffffffffffff16815260200190815260200160002060040181905550613abb82600854614e0690919063ffffffff16565b6008819055508273ffffffffffffffffffffffffffffffffffffffff167f2cebdff48fce81ce1759871451e83228bc810bd79ee76f0c03f101e1ec152a07600b60008673ffffffffffffffffffffffffffffffffffffffff1673ffffffffffffffffffffffffffffffffffffffff168152602001908152602001600020600001613b9085600b60008973ffffffffffffffffffffffffffffffffffffffff1673ffffffffffffffffffffffffffffffffffffffff16815260200190815260200160002060030154614ded90919063ffffffff16565b856040518080602001848152602001838152602001828103825285818154600181600116156101000203166002900481526020019150805460018160011615610100020316600290048015613c265780601f10613bfb57610100808354040283529160200191613c26565b820191906000526020600020905b815481529060010190602001808311613c0957829003601f168201915b505094505050505060405180910390a26001905092915050565b600a60009054906101000a900473ffffffffffffffffffffffffffffffffffffffff1681565b600080600160003373ffffffffffffffffffffffffffffffffffffffff1673ffffffffffffffffffffffffffffffffffffffff16815260200190815260200160002060009054906101000a900460ff1680613d0d57506000809054906101000a900473ffffffffffffffffffffffffffffffffffffffff1673ffffffffffffffffffffffffffffffffffffffff163373ffffffffffffffffffffffffffffffffffffffff16145b1515613d1857600080fd5b600091505b838390508260ff161015613f155783838360ff168181101515613d3c57fe5b9050602002013573ffffffffffffffffffffffffffffffffffffffff169050600073ffffffffffffffffffffffffffffffffffffffff168173ffffffffffffffffffffffffffffffffffffffff1614158015613de25750600160008273ffffffffffffffffffffffffffffffffffffffff1673ffffffffffffffffffffffffffffffffffffffff16815260200190815260200160002060009054906101000a900460ff16155b8015613e3b57506000809054906101000a900473ffffffffffffffffffffffffffffffffffffffff1673ffffffffffffffffffffffffffffffffffffffff168173ffffffffffffffffffffffffffffffffffffffff1614155b15613f085760018060008373ffffffffffffffffffffffffffffffffffffffff1673ffffffffffffffffffffffffffffffffffffffff16815260200190815260200160002060006101000a81548160ff02191690831515021790555083838360ff168181101515613ea857fe5b9050602002013573ffffffffffffffffffffffffffffffffffffffff1673ffffffffffffffffffffffffffffffffffffffff167f44d6d25963f097ad14f29f06854a01f575648a1ef82f30e562ccd3889717e33960405160405180910390a25b8180600101925050613d1d565b50505050565b6000806000600160003373ffffffffffffffffffffffffffffffffffffffff1673ffffffffffffffffffffffffffffffffffffffff16815260200190815260200160002060009054906101000a900460ff1680613fc457506000809054906101000a900473ffffffffffffffffffffffffffffffffffffffff1673ffffffffffffffffffffffffffffffffffffffff163373ffffffffffffffffffffffffffffffffffffffff16145b1515613fcf57600080fd5b600a60009054906101000a900473ffffffffffffffffffffffffffffffffffffffff1673ffffffffffffffffffffffffffffffffffffffff1663dd62ed3e33306040518363ffffffff167c0100000000000000000000000000000000000000000000000000000000028152600401808373ffffffffffffffffffffffffffffffffffffffff1673ffffffffffffffffffffffffffffffffffffffff1681526020018273ffffffffffffffffffffffffffffffffffffffff1673ffffffffffffffffffffffffffffffffffffffff16815260200192505050602060405180830381600087803b1580156140c057600080fd5b505af11580156140d4573d6000803e3d6000fd5b505050506040513d60208110156140ea57600080fd5b81019080805190602001909291905050509150600082111515614175576040517f08c379a00000000000000000000000000000000000000000000000000000000081526004018080602001828103825260108152602001807f4e6f7468696e6720746f2066756e642e0000000000000000000000000000000081525060200191505060405180910390fd5b61417d612f7d565b9050600a60009054906101000a900473ffffffffffffffffffffffffffffffffffffffff1673ffffffffffffffffffffffffffffffffffffffff166323b872dd3330856040518463ffffffff167c0100000000000000000000000000000000000000000000000000000000028152600401808473ffffffffffffffffffffffffffffffffffffffff1673ffffffffffffffffffffffffffffffffffffffff1681526020018373ffffffffffffffffffffffffffffffffffffffff1673ffffffffffffffffffffffffffffffffffffffff1681526020018281526020019350505050602060405180830381600087803b15801561427857600080fd5b505af115801561428c573d6000803e3d6000fd5b505050506040513d60208110156142a257600080fd5b810190808051906020019092919050505015156142be57600080fd5b3373ffffffffffffffffffffffffffffffffffffffff167f26b27e83d0b82c44eb17d6f11776a8c600332d2ed7d9febfe585848bcfadf52d8383614300612f7d565b60405180848152602001838152602001828152602001935050505060405180910390a260019250505090565b6000614345600954600854614ded90919063ffffffff16565b905090565b60008060008060008060006003541415614367576000955061447f565b600b60008873ffffffffffffffffffffffffffffffffffffffff1673ffffffffffffffffffffffffffffffffffffffff16815260200190815260200160002060020154420394506143c360045486614e2290919063ffffffff16565b600101935060035484029250600b60008873ffffffffffffffffffffffffffffffffffffffff1673ffffffffffffffffffffffffffffffffffffffff16815260200190815260200160002060030154831161441e5782614462565b600b60008873ffffffffffffffffffffffffffffffffffffffff1673ffffffffffffffffffffffffffffffffffffffff168152602001908152602001600020600301545b915061447960095483614ded90919063ffffffff16565b90508095505b5050505050919050565b600080600160003373ffffffffffffffffffffffffffffffffffffffff1673ffffffffffffffffffffffffffffffffffffffff16815260200190815260200160002060009054906101000a900460ff168061453057506000809054906101000a900473ffffffffffffffffffffffffffffffffffffffff1673ffffffffffffffffffffffffffffffffffffffff163373ffffffffffffffffffffffffffffffffffffffff16145b151561453b57600080fd5b600091505b838390508260ff1610156147385783838360ff16818110151561455f57fe5b9050602002013573ffffffffffffffffffffffffffffffffffffffff169050600073ffffffffffffffffffffffffffffffffffffffff168173ffffffffffffffffffffffffffffffffffffffff16141580156146045750600160008273ffffffffffffffffffffffffffffffffffffffff1673ffffffffffffffffffffffffffffffffffffffff16815260200190815260200160002060009054906101000a900460ff165b801561465d57506000809054906101000a900473ffffffffffffffffffffffffffffffffffffffff1673ffffffffffffffffffffffffffffffffffffffff168173ffffffffffffffffffffffffffffffffffffffff1614155b1561472b576000600160008373ffffffffffffffffffffffffffffffffffffffff1673ffffffffffffffffffffffffffffffffffffffff16815260200190815260200160002060006101000a81548160ff02191690831515021790555083838360ff1681811015156146cb57fe5b9050602002013573ffffffffffffffffffffffffffffffffffffffff1673ffffffffffffffffffffffffffffffffffffffff167fa3b62bc36326052d97ea62d63c3d60308ed4c3ea8ac079dd8499f1e9c4f80c0f60405160405180910390a25b8180600101925050614540565b50505050565b6000809054906101000a900473ffffffffffffffffffffffffffffffffffffffff1673ffffffffffffffffffffffffffffffffffffffff163373ffffffffffffffffffffffffffffffffffffffff1614151561479957600080fd5b6147a281614e38565b50565b6000806000806000600160003373ffffffffffffffffffffffffffffffffffffffff1673ffffffffffffffffffffffffffffffffffffffff16815260200190815260200160002060009054906101000a900460ff168061485157506000809054906101000a900473ffffffffffffffffffffffffffffffffffffffff1673ffffffffffffffffffffffffffffffffffffffff163373ffffffffffffffffffffffffffffffffffffffff16145b151561485c57600080fd5b600073ffffffffffffffffffffffffffffffffffffffff168673ffffffffffffffffffffffffffffffffffffffff1614151515614901576040517f08c379a00000000000000000000000000000000000000000000000000000000081526004018080602001828103825260108152602001807f496e76616c696420616464726573732e0000000000000000000000000000000081525060200191505060405180910390fd5b6000600b60008873ffffffffffffffffffffffffffffffffffffffff1673ffffffffffffffffffffffffffffffffffffffff168152602001908152602001600020600101541115156149e1576040517f08c379a000000000000000000000000000000000000000000000000000000000815260040180806020018281038252603c8152602001807f4163636573732069732064656e6965642e20526571756573746564207665737481526020017f696e67207363686564756c6520646f6573206e6f742065786973742e0000000081525060400191505060405180910390fd5b600b60008773ffffffffffffffffffffffffffffffffffffffff1673ffffffffffffffffffffffffffffffffffffffff16815260200190815260200160002060050160009054906101000a900460ff16151515614acc576040517f08c379a000000000000000000000000000000000000000000000000000000000815260040180806020018281038252603c8152602001807f4163636573732069732064656e6965642e20526571756573746564207665737481526020017f696e67207363686564756c6520646f6573206e6f742065786973742e0000000081525060400191505060405180910390fd5b600b60008773ffffffffffffffffffffffffffffffffffffffff1673ffffffffffffffffffffffffffffffffffffffff168152602001908152602001600020600301549350600b60008773ffffffffffffffffffffffffffffffffffffffff1673ffffffffffffffffffffffffffffffffffffffff168152602001908152602001600020600401549250600b60008773ffffffffffffffffffffffffffffffffffffffff1673ffffffffffffffffffffffffffffffffffffffff168152602001908152602001600020600601549150614bae8284614ded90919063ffffffff16565b9050614bc38185614ded90919063ffffffff16565b600b60008873ffffffffffffffffffffffffffffffffffffffff1673ffffffffffffffffffffffffffffffffffffffff168152602001908152602001600020600301819055506000600b60008873ffffffffffffffffffffffffffffffffffffffff1673ffffffffffffffffffffffffffffffffffffffff168152602001908152602001600020600401819055506001600b60008873ffffffffffffffffffffffffffffffffffffffff1673ffffffffffffffffffffffffffffffffffffffff16815260200190815260200160002060050160006101000a81548160ff021916908315150217905550614cc181600854614ded90919063ffffffff16565b6008819055508573ffffffffffffffffffffffffffffffffffffffff167f47370478829f2a02d88c41aa352cafd9e19a623634304cc8b26d9b2cd8564a65600b60008973ffffffffffffffffffffffffffffffffffffffff1673ffffffffffffffffffffffffffffffffffffffff168152602001908152602001600020600001836040518080602001838152602001828103825284818154600181600116156101000203166002900481526020019150805460018160011615610100020316600290048015614dd15780601f10614da657610100808354040283529160200191614dd1565b820191906000526020600020905b815481529060010190602001808311614db457829003601f168201915b5050935050505060405180910390a26001945050505050919050565b6000828211151515614dfb57fe5b818303905092915050565b60008183019050828110151515614e1957fe5b80905092915050565b60008183811515614e2f57fe5b04905092915050565b600073ffffffffffffffffffffffffffffffffffffffff168173ffffffffffffffffffffffffffffffffffffffff1614151515614e7457600080fd5b8073ffffffffffffffffffffffffffffffffffffffff166000809054906101000a900473ffffffffffffffffffffffffffffffffffffffff1673ffffffffffffffffffffffffffffffffffffffff167f8be0079c531659141344cd1fd0a4f28419497f9722a3daafe3b4186f6b6457e060405160405180910390a3806000806101000a81548173ffffffffffffffffffffffffffffffffffffffff021916908373ffffffffffffffffffffffffffffffffffffffff16021790555050565b828054600181600116156101000203166002900490600052602060002090601f016020900481019282601f10614f7357805160ff1916838001178555614fa1565b82800160010185558215614fa1579182015b82811115614fa0578251825591602001919060010190614f85565b5b509050614fae9190614fb2565b5090565b614fd491905b80821115614fd0576000816000905550600101614fb8565b5090565b905600a165627a7a7230582046f867dcf86f6e44ccaddc050e3e5c1178398cf628cc11fab02a831af80b69700029",
  "source": "pragma solidity ^0.4.24;\n\nimport './VestingScheduleBase.sol';\nimport './FrequencyHelper.sol';\n\n///@title Vesting Schedule Implementation\n///@notice Vesting Schedule indicates when, how much, and how frequently\n///founders, employees, and advisors can exercise their token allocations.\n///Vesting is determined for each individual.\ncontract VestingSchedule is VestingScheduleBase, FrequencyHelper {\n    ///@notice Constructs this contract\n    ///@param _minPeriod The minimum vesting period.\n    ///@param _withdrawalCap Maximum amount of tokens that can be withdrawn for the specified frequency.\n    ///@param _withdrawalFrequency The frequency of token withdrawals. If the _withdrawalCap is zero, this variable is ignored.\n    ///@param _vestingCoin The ERC20 contract of the coin being vested.\n    constructor(uint256 _minPeriod, uint256 _withdrawalCap, Frequency _withdrawalFrequency, ERC20 _vestingCoin) public\n    VestingScheduleBase(_minPeriod, _withdrawalCap, _vestingCoin)\n    {\n        ///Calcualate the earliest date of withdrawal.\n        earliestWithdrawalDate = vestingStartedOn.add(minimumVestingPeriod);\n\n        if(_withdrawalCap > 0){\n            withdrawalFrequency = convertFrequency(_withdrawalFrequency);\n        }\n    }\n    \n    ///@notice Enables this vesting schedule contract to receive the ERC20 (vesting coin).\n    ///Before calling this function please approve your desired amount of the coin\n    ///for this smart contract address.\n    ///Please note that this action is restricted to administrators only.\n    ///@return Returns true if the funding was successful.\n    function fund() external onlyAdmin returns(bool) {\n        ///Check the funds available.\n        uint256 allowance = vestingCoin.allowance(msg.sender, this);\n        require(allowance > 0, \"Nothing to fund.\");\n   \n        ///Get the current allocation.\n        uint256 current = getAvailableFunds();\n                \n        require(vestingCoin.transferFrom(msg.sender, this, allowance));\n\n        emit Funded(msg.sender, allowance, current, getAvailableFunds());\n        return true;\n    }\n    \n    ///@notice Allows you to withdraw the surplus balance of the vesting coin from this contract.\n    ///Please note that this action is restricted to administrators only\n    ///and you may only withdraw amounts above the sum total allocation balances.\n    ///@param _amount The amount desired to withdraw.\n    ///@return Returns true if the withdrawal was successful.\n    function removeFunds(uint256 _amount) external onlyAdmin returns(bool) {        \n        uint256 balance = vestingCoin.balanceOf(this);\n        uint256 locked = getAmountInVesting();\n\n        require(balance > locked);\n\n        uint256 available = balance - locked;\n\n        require(available >= _amount);\n        \n        require(vestingCoin.transfer(msg.sender, _amount));\n\n        emit FundRemoved(msg.sender, _amount, available.sub(_amount));\n        return true;\n    }\n    \n    ///@notice Creates a vesting schedule allocation for a new beneficiary.\n    ///A beneficiary could mean founders, employees, or advisors.\n    ///Please note that this action can only be performed by an administrator.\n    ///@param _address The address which will receive the tokens in the future date.\n    ///@param _memberName The name of the candidate for which this vesting schedule allocation is being created for.\n    ///@param _amount The total amount of tokens being vested over the period of vesting duration.\n    ///@param _releaseOn The date on which the first vesting schedule becomes available for withdrawal.\n    ///@return Returns true if the vesting schedule allocation was successfully created.\n    function createAllocation(address _address, string _memberName, uint256 _amount, uint256 _releaseOn) external onlyAdmin returns(bool) {\n        require(_address != address(0), \"Invalid address.\");\n        require(_amount > 0, \"Invalid amount.\");\n        require(allocations[_address].startedOn == 0, \"Access is denied. Duplicate entry.\");\n        require(_releaseOn >= earliestWithdrawalDate, \"Access is denied. Please specify a longer vesting period.\");\n        require(getAvailableFunds() >= getAmountInVesting().add(_amount), \"Access is denied. Insufficient balance, vesting cap exceeded.\");\n        \n        allocations[_address] = Allocation({ \n            startedOn: now,\n            memberName: _memberName,\n            releaseOn: _releaseOn,\n            allocation: _amount,\n            closingBalance: _amount,\n            deleted: false,\n            withdrawn: 0,\n            lastWithdrawnOn: 0\n        });\n        \n        totalVested = totalVested.add(_amount);\n\n        emit AllocationCreated(_address, _memberName, _amount, _releaseOn);\n        return true;\n    }\n\n    ///@notice Deletes the specified vesting schedule allocation.\n    ///Please note that this action can only be performed by an administrator.\n    ///@param _address The address of the beneficiary whose allocation is being requested to be deleted.\n    ///@return Returns true if the vesting schedule allocation was successfully deleted.\n    function deleteAllocation(address _address) external onlyAdmin returns(bool) {\n        require(_address != address(0), \"Invalid address.\");\n        require(allocations[_address].startedOn > 0, \"Access is denied. Requested vesting schedule does not exist.\");\n        require(!allocations[_address].deleted, \"Access is denied. Requested vesting schedule does not exist.\");\n\n        uint256 allocation = allocations[_address].allocation;\n        uint256 previousBalance = allocations[_address].closingBalance;\n        uint256 withdrawn = allocations[_address].withdrawn;\n        uint256 lessAmount = previousBalance.sub(withdrawn);\n\n        allocations[_address].allocation = allocation.sub(lessAmount);\n        allocations[_address].closingBalance = 0;\n        allocations[_address].deleted = true;\n        \n        totalVested = totalVested.sub(lessAmount);\n\n        emit AllocationDeleted(_address, allocations[_address].memberName, lessAmount);\n        return true;\n    }\n\n    ///@notice Increases the total allocation of the specified vesting schedule.\n    ///Please note that this action can only be performed by an administrator.\n    ///@param _address The address of the beneficiary whose allocation is being requested to be increased.\n    ///@param _additionalAmount The additional amount in vesting coin to be addeded to the existing allocation.\n    ///@return Returns true if the vesting schedule allocation was successfully increased.\n    function increaseAllocation(address _address, uint256 _additionalAmount) external onlyAdmin returns(bool) {\n        require(_address != address(0), \"Invalid address.\");\n        require(_additionalAmount > 0, \"Invalid amount.\");\n\n        require(allocations[_address].startedOn > 0, \"Access is denied. Requested vesting schedule does not exist.\");\n        require(!allocations[_address].deleted, \"Access is denied. Requested vesting schedule does not exist.\");\n\n        require(getAvailableFunds() >= getAmountInVesting().add(_additionalAmount), \"Access is denied. Insufficient balance, vesting cap exceeded.\");\n\n        allocations[_address].allocation = allocations[_address].allocation.add(_additionalAmount);\n        allocations[_address].closingBalance = allocations[_address].closingBalance.add(_additionalAmount);\n\n        totalVested = totalVested.add(_additionalAmount);\n\n        emit AllocationIncreased(_address, allocations[_address].memberName, allocations[_address].allocation.sub(_additionalAmount), _additionalAmount);\n        return true;\n    }\n\n    ///@notice Decreases the total allocation of the specified vesting schedule.\n    ///Please note that this action can only be performed by an administrator.\n    ///@param _address The address of the beneficiary whose allocation is being requested to be decreased.\n    ///@param _lessAmount The amount in vesting coin to be decreased from the existing allocation.\n    ///@return Returns true if the vesting schedule allocation was successfully decreased.\n    function decreaseAllocation(address _address, uint256 _lessAmount) external onlyAdmin returns(bool) {\n        require(_address != address(0), \"Invalid address.\");\n        require(_lessAmount > 0);\n\n        require(allocations[_address].startedOn > 0, \"Access is denied. Requested vesting schedule does not exist.\");\n        require(!allocations[_address].deleted, \"Access is denied. Requested vesting schedule does not exist.\");\n        require(allocations[_address].closingBalance >= _lessAmount, \"Access is denied. Insufficient funds.\");\n\n        allocations[_address].allocation = allocations[_address].allocation.sub(_lessAmount);\n        allocations[_address].closingBalance = allocations[_address].closingBalance.sub(_lessAmount);\n        \n        totalVested = totalVested.sub(_lessAmount);\n\n        emit AllocationDecreased(_address, allocations[_address].memberName, allocations[_address].allocation.add(_lessAmount), _lessAmount);\n        return true;\n    }\n\n    ///@notice Extends the release date of the specified vesting schedule allocation.\n    ///Please note that this action can only be performed by an administrator.\n    ///@param _address The address of the beneficiary who allocation is being requested to be extended.\n    ///@param _newReleaseDate A new release date to extend the allocation to.\n    ///@return Returns true if the vesting schedule allocation was successfully extended.\n    function extendAllocation(address _address, uint256 _newReleaseDate) external onlyAdmin returns(bool) {\n        require(_address != address(0), \"Invalid address.\");\n        require(allocations[_address].startedOn > 0, \"Access is denied. Requested vesting schedule does not exist.\");\n        require(!allocations[_address].deleted, \"Access is denied. Requested vesting schedule does not exist.\");\n        require (now < allocations[_address].releaseOn, \"Access is denied. The vesting schedule was already released.\");\n        require(_newReleaseDate > allocations[_address].releaseOn, \"Access is denied. You can also extend the release date but not the other way around.\");        \n        \n\n        uint256 previousReleaseDate = allocations[_address].releaseOn;\n        allocations[_address].releaseOn = _newReleaseDate;\n\n        emit ScheduleExtended(_address, allocations[_address].memberName, previousReleaseDate, _newReleaseDate);\n        return true;\n    }\n    \n    ///@notice Gets the drawing power of the beneficiary.\n    ///@param _address The address to check the drawing power of.\n    ///@return Returns the amount in vesting coin that can be withdrawn.\n    function getDrawingPower(address _address) public view returns(uint256) {\n        if(withdrawalCap == 0){\n            return 0;\n        }\n        \n        uint256 duration = now - allocations[_address].releaseOn;\n        uint256 cycles = 1 + (duration.div(withdrawalFrequency));\n\n        uint256 amount = cycles * withdrawalCap;\n        uint256 cap = amount > allocations[_address].allocation ? allocations[_address].allocation : amount;\n        uint256 drawingPower = cap.sub(totalWithdrawn);\n\n        return drawingPower;\n    }\n    \n    ///@notice Signifies if the sender has enough balances to withdraw the desired amount of the vesting coin.\n    ///@param _amount The amount desired to be withdrawn.\n    modifier canWithdraw(uint256 _amount)  {\n        require(allocations[msg.sender].startedOn > 0, \"Access is denied. Requested vesting schedule does not exist.\");\n        require(!allocations[msg.sender].deleted, \"Access is denied. Requested vesting schedule does not exist.\");\n        require(now >= allocations[msg.sender].releaseOn, \"Access is denied. You are not allowed to withdraw before the release date.\");\n        require(allocations[msg.sender].closingBalance >= _amount, \"Access is denied. Insufficient funds.\");\n        \n        uint256 drawingPower = getDrawingPower(msg.sender);\n\n        ///Zero means unlimited amount.\n        ///We've already verified above that the investor has sufficient balance.\n        if(withdrawalCap > 0){\n            require(drawingPower >= _amount, \"Access is denied. The requested amount exceeds your allocation.\");\n            _;\n        }\n    }\n\n    ///@notice This action enables the beneficiaries to withdraw a desired amount from this contract.    \n    ///@param _amount The amount in vesting coin desired to withdraw.\n    function withdraw(uint256 _amount) external canWithdraw(_amount) afterEarliestWithdrawalDate whenNotPaused returns(bool) {                        \n        allocations[msg.sender].lastWithdrawnOn = now;\n\n        allocations[msg.sender].closingBalance = allocations[msg.sender].closingBalance.sub(_amount);\n        allocations[msg.sender].withdrawn = allocations[msg.sender].withdrawn.add(_amount);\n\n        totalWithdrawn = totalWithdrawn.add(_amount);\n\n        require(vestingCoin.transfer(msg.sender, _amount));\n\n        emit Withdrawn(msg.sender, allocations[msg.sender].memberName, _amount);\n        return true;\n    }\n}",
  "sourcePath": "/Users/biod/Desktop/projects/vesting-schedule/contracts/VestingSchedule.sol",
  "compiler": {
    "name": "solc",
    "version": "0.4.24+commit.e67f0147.Emscripten.clang"
  },
  "schemaVersion": "2.0.1",
  "updatedAt": "2018-10-08T18:59:31.940Z"
}